S010000050726F6A656374332E737265630A
S11300007EC000009DC000009BC0000099C000009D
S113001097C0000095C0000093C0000091C000008C
S11300208FC000008DC000008BC0000089C000009C
S113003087C0000085C0000083C0000081C00000AC
S11300407FC000000C9438097BC0000079C0000018
S113005077C0000075C0000073C0000071C00000CC
S11300606FC000000C94690C0C94A20C69C00000D1
S113007067C0000065C0000063C0000061C00000EC
S11300800C94FD095DC000005BC0000059C0000075
S11300900C94180D0C94510D53C0000051C0000075
S11300A04FC000004DC000004BC0000049C000001C
S11300B047C0000045C0000043C0000041C000002C
S11300C03FC000003DC000003BC0000039C000003C
S11300D037C0000035C0000033C0000031C000004C
S11300E02FC000000505EB0405051405B90523051B
S11300F0DC040C064106E306E5061B0792071124FF
S11301001FBECFEFD1E2DEBFCDBF00E00CBF12E0D7
S1130110A0E0B2E0EEE3FBE100E00BBF02C0079019
S11301200D92A030B107D9F726E1A0E0B2E001C0FA
S11301301D92AE3CB207E1F70E94140A0C949D0D87
S11301405FCF0F921F922F923F924F925F926F92C6
S11301507F928F929F92AF92BF92CF92DF92EF9253
S1130160FF920F931F932F933F934F935F936F933C
S11301707F938F939F93AF93BF93CF93DF93EF932B
S1130180FF930FB70F93FCB7FF93EDB7FEB7E09360
S1130190CC16F093CD16E091AA16F091AB16EDBFF4
S11301A0FEBFFF91FCBF0F910FBFFF91EF91DF9155
S11301B0CF91BF91AF919F918F917F916F915F91FB
S11301C04F913F912F911F910F91FF90EF90DF90EE
S11301D0CF90BF90AF909F908F907F906F905F90E3
S11301E04F903F902F901F900F9018950F921F9251
S11301F02F923F924F925F926F927F928F929F9233
S1130200AF92BF92CF92DF92EF92FF920F931F9320
S11302102F933F934F935F936F937F938F939F930A
S1130220AF93BF93CF93DF93EF93FF930FB70F93E6
S1130230FCB7FF93EDB7FEB7E093AA16F093AB16A5
S1130240E091CC16F091CD16EDBFFEBFFF91FCBF3F
S11302500F910FBFFF91EF91DF91CF91BF91AF91BC
S11302609F918F917F916F915F914F913F912F91CA
S11302701F910F91FF90EF90DF90CF90BF90AF90C0
S11302809F908F907F906F905F904F903F902F90B2
S11302901F900F900895EAE0F1E0808181608083EF
S11302A00895EAE0F1E08081826080830895EAE0C5
S11302B0F1E08081846080830895EAE0F1E0808148
S11302C0806280830895EAE0F1E080818064808325
S11302D00895EBE0F1E0908121E030E002C0220FCC
S11302E0331F8A95E2F7292B20830895EBE0F1E090
S11302F0908121E030E002C0220F331F8A95E2F79B
S11303002095292320830895219A299A0C94FF0B80
S11303100895229A299860E070E884E690E00C94AD
S1130320520C089500D790935F1680935E16FBD607
S1130330909365168093641610D7909369168093F2
S113034068160BD7909363168093621641E050E0D1
S113035068E070E084E891E01AD790936716809380
S1130360661641E050E068E070E089E891E00FD75C
S1130370909361168093601601C0089580911002D5
S113038090911102892B51F0F894E0911202F091AE
S11303901302E35FFE4F84E0808328CF0895EF9239
S11303A0FF920F931F93CF93DF931F921F92CDB7AA
S11303B0DEB79A838983DC017C0104E0E00EF11C42
S11303C080E091E0F7018C01119201501040E1F7B7
S11303D0FD01ED5FFE4F8EEB91E0808331979083BA
S11303E031976083319770833197108290E09293B4
S11303F09F5F9232E1F7A452BF4FE981FA81B38340
S1130400A283DF01A55FBE4F11967C936E93129673
S11304101C9280910C0290910D02918380838981BA
S11304209A81FC01EB5FFE4F5183408332965183E6
S113043040833296318320837196118210823497DF
S113044023E630E03183208320910E0230910F02A5
S11304502F5F3F4F30930F0220930E0220910C0226
S113046030910D022F5F3F4F30930D0220930C0209
S1130470729781E0808344E052E06AE876E1CE013D
S113048001960E94C00AE981FA81808191810F90CE
S11304900F90DF91CF911F910F91FF90EF900895EE
S11304A0CF93DF93EC0180910E0290910F0240975D
S11304B021F180917803882371F0A6E9B4E0E1E0AA
S11304C0F0E09C91992349F03196A25EBE4FE03151
S11304D0F105B9F702C0E0E0F0E09A01AB01BE011A
S11304E0AEE1B1E0EA9FC001EB9F900DFA9F900D41
S11304F011248C589D4F53DF00C0DF91CF91089594
S1130500FC0180910A0290910B029183808381E027
S1130510828380910A0290910B02019690930B02C0
S113052080930A02808191810895FC0180910802E0
S1130530909109029183808381E0828314821382E3
S11305408091080290910902019690930902809388
S11305500802808191810895CF93DF9310920F0256
S113056010920E02109211021092100210920B02BD
S113057010920A02109209021092080210920D02BF
S113058010920C02E4E7F2E0A8E7B3E044E554E19A
S11305902EE131E083E690E0EF01B9011992615058
S11305A07040E1F71C9253969C938E93529711825C
S11305B01082E25EFE4FA25EBE4FE417F50761F7BC
S11305C0EEE3F2E026E732E087E0DF011297ED0187
S11305D0682F19926A95E9F710823796E217F307A4
S11305E0A1F7E6E1F2E02EE332E085E0DF011297C5
S11305F0ED01682F19926A95E9F710823596E21792
S1130600F307A1F7DF91CF91089581E090E00E9474
S11306109D0D64E072E08AE896E10E948B0BFC0178
S11306209093130280931202892B09F4EEDF8281E6
S113063093819093AB168093AA1682E0DF01AC5F9E
S1130640BE4F8C9380819181029720F482E090E0E8
S113065040CE089580819181029721F485E090E055
S113066038CE089580819181039719F486E090E053
S113067030CE08950F931F93CF93DF931F921F9251
S1130680CDB7DEB7A0911202B0911302FD01EC5E6A
S1130690FE4F40815181ECE3F2E000E010E0808104
S11306A091818417950739F00F5F1F4F37960830F3
S11306B01105A9F7F7C08D919C91119727E0209F10
S11306C0F001219FF00D1124E45CFD4F238134815E
S11306D02817390709F0E6C0AC5FBE4F8C9186300D
S11306E009F04DC060E072E08CEA96E1ACD79A83E1
S11306F08983009779F487E0809FF001819FF00D52
S11307001124E45CFD4F1682158281E082831482F9
S11307101382C8C027E0209FF001219FF00D11240F
S1130720E45CFD4F21E030E036832583DC012D912C
S11307303C91348323832091120230911302D90116
S1130740A95FBE4F4D915C911197FC01E95FFE4F8B
S113075051834083339781E08083F901EB5FFE4F3F
S11307604081518111965C934E933197808344E08C
S113077052E06AE876E1CE01019602D793C087E0A1
S1130780809FF001819FF00D1124E45CFD4F858171
S113079096818230910560F027E0209FF001219F2F
S11307A0F00D1124E45CFD4F0197968385837AC094
S11307B060E072E08CEA96E146D79A8389830097D9
S11307C0A9F587E0809FF001819FF00D1124E45C7E
S11307D0FD4F81E082831682158214821382E09198
S11307E01202F0911302DF01AB5FBE4F8D919C9119
S11307F01197129611969C938E9380819181029702
S113080020F482E090E065DD4DC080819181029703
S113081021F485E090E05DDD45C0808191810397FE
S113082009F040C086E090E054DD3CC027E0209F02
S1130830F001219FF00D1124E45CFD4F21E030E034
S113084036832583DC012D913C91348323832091CD
S1130850120230911302D901A95FBE4F4D915C91F0
S11308601197FC01E95FFE4F51834083339781E088
S11308708083F901EB5FFE4F4081518111965C93B7
S11308804E933197808344E052E06AE876E1CE01EA
S1130890019676D644E052E06AE876E182E192E09D
S11308A06FD6B7DE0F900F90DF91CF911F910F910C
S11308B008952F923F924F925F926F927F928F9200
S11308C09F92AF92BF92CF92DF92EF92FF920F93DB
S11308D01F93CF93DF9300D01F92CDB7DEB78091E3
S11308E0100290911102892B09F006C480910E0226
S11308F090910F02892B09F4FFC3F89481E090E0F2
S1130900909311028093100284DE0F2EF4E1EF2EF7
S1130910F2E0FF2EF02D0F2EFEE1AF2EBB24B39498
S1130920F02D0F2EF3E62F2E312CF02D88248394F6
S1130930912C0F2EFCE3CF2EF2E0DF2EF02D04E7F6
S113094012E00F2EFAE06F2E712CF02DE0911202BE
S1130950F0911302DF01A35FBE4F1C928281938149
S11309609093AB168093AA16ECDB82E090E0BEDC99
S113097085E090E0BBDC86E090E0B8DC8091120278
S1130980909113029C838B838091AA169091AB164D
S1130990AB81BC8113969C938E931297FD01E35F08
S11309A0FE4FE081F0E0ED30F10580F68827EE5847
S11309B0FF4F8F4F0C94950DEB81FC81E45EFE4F4D
S11309C080819181E4E7F2E02081318128173907A1
S11309D009F089C00DC3EB81FC81E75FFE4F4081C4
S11309E05181EB81FC81EB5FFE4F60817181EB8172
S11309F0FC81E55FFE4F8081918152DDEB81FC81BA
S1130A00E25FFE4F91838083A1CFEB81FC81EC5F99
S1130A10FE4F81E0808344E052E06AE876E182E1BF
S1130A2092E0AED5F6DD92CFEB81FC81EC5FFE4F18
S1130A3083E0808342E052E06AE676E182E192E07C
S1130A402ED5E7DD83CFAB81BC812D913C911197ED
S1130A50FD01E45EFE4F808191812817390751F032
S1130A6080819181E4E7F2E0208131812817390700
S1130A7041F4ADC2EB81FC81E65EFE4F918280823F
S1130A801AC0E2E9F3E0C401AB81BC81A45EBE4FAD
S1130A906B817C812D913C9111974081518142174A
S1130AA0530709F497C20196E25EFE4F8031910527
S1130AB089F77C836B83EB81FC81E65EFE4F80814A
S1130AC09181892B09F442CFEB81FC81EC5FFE4FCD
S1130AD081E0808344E052E06AE876E182E192E0DA
S1130AE04FD597DD33CFE2E9F3E0C401AB81BC819C
S1130AF0A45EBE4F6B817C812D913C911197408106
S1130B0051814217530709F476C20196E25EFE4F03
S1130B108031910589F71ACF8A9D90018B9D300D04
S1130B209A9D300D1124C9018C589D4FFC01E65E3D
S1130B30FE4F11821082EB81FC81E95FFE4F208120
S1130B403181FC01E95FFE4F808191818217930717
S1130B5008F0FCCEEB81FC81EC5FFE4F81E08083EA
S1130B6044E052E06AE876E182E192E009D551DDA1
S1130B70EDCEEB81FC81E95FFE4F11821082EB81A7
S1130B80FC81EB5FFE4F11821082EB81FC81EC5FF4
S1130B90FE4F86E08083DC82CB82E0911202F091EA
S1130BA0130280819181AB81BC8113962D913C917C
S1130BB014972817390739F48D919C91EC5EFE4FF8
S1130BC09183808357DDEB81FC813796FC83EB8333
S1130BD0E017F10711F7E0911202F0911302DF011F
S1130BE0AC5FBE4F1C92529611963C922E921F9768
S1130BF011967C926E92129711967C926E9211824B
S1130C00108280910E0290910F02019790930F022F
S1130C1080930E02FEDC9ACE80910A0290910B0220
S1130C20089741F1D60112968C91882389F0E5E466
S1130C30F2E094014B815C818081882361F02F5F15
S1130C403F4F379628303105B9F75C834B8305C095
S1130C5020E030E002C05C834B83C901880F991FF8
S1130C60880F991F880F991F821B930B845C9D4FDB
S1130C7047DC2C01EB81FC81E25FFE4F5182408214
S1130C8065CEEB81FC81EC5EFE4F40815181F60123
S1130C90808191814817590709F4BFC1C4016B8150
S1130CA07C81278130854217530709F4B9C1019625
S1130CB0379688309105A9F749CEFC01EE0FFF1F46
S1130CC0EE0FFF1FEE0FFF1FE81BF90BE45CFD4F57
S1130CD082E08283AB81BC818D919C9194838383D8
S1130CE08581968101969683858330CEFC01EE0F33
S1130CF0FF1FEE0FFF1FEE0FFF1FE81BF90BE45C55
S1130D00FD4F23813481EB81FC8140815181241783
S1130D10350789F4FC01EE0FFF1FEE0FFF1FEE0FE6
S1130D20FF1FE81BF90BE45CFD4F8581968101965A
S1130D30968385830BCEE4E7F2E080E090E06B815C
S1130D407C81408151812417350719F4211531051F
S1130D5031F40196E25EFE4F8031910591F77C8378
S1130D606B83FB01E95FFE4F208131818A9DF00195
S1130D708B9DF00D9A9DF00D1124E558FC4F408198
S1130D8051812417350780F4FB01E95FFE4F208170
S1130D9031818A9DF0018B9DF00D9A9DF00D1124F7
S1130DA0E558FC4F31832083EB81FC81EC5FFE4FDF
S1130DB084E0808340E052E06CEA76E182E192E0F4
S1130DC03ED327DCC3CD56DCC1CD8091080290917F
S1130DD00902089731F1D70112968C91882381F08A
S1130DE0EBE1F2E0C4014B815C812081222359F0C4
S1130DF00196359688309105C1F75C834B8305C015
S1130E0080E090E002C05C834B839C01220F331F7F
S1130E10220F331F820F931F8C5E9D4F86DB9A83B4
S1130E208983AB81BC81A25FBE4FE981FA811196AF
S1130E30FC93EE938BCDEB81FC81E85EFE4F408109
S1130E405181D7018D919C914817590709F4FAC033
S1130E50F701C4016B817C812581368142175307D8
S1130E6009F4F3C00196359688309105A9F73DC081
S1130E70FC01EE0FFF1FEE0FFF1FE80FF91FEC5EE2
S1130E80FD4F2281223069F4FC01EE0FFF1FEE0FAB
S1130E90FF1F8E0F9F1FFC01EC5EFD4F81E08283DC
S1130EA024C0EB81FC81EA5EFE4F51834083EB81D9
S1130EB0FC8120813181FC01EE0FFF1FEE0FFF1F2B
S1130EC08E0F9F1FFC01EC5EFD4F34832383EB8167
S1130ED0FC81EC5FFE4F85E0808344E052E06AE8E9
S1130EE076E182E192E04CD394DBE0911202F0913E
S1130EF0130280819181029720F482E090E0E9D985
S1130F0025CD80819181029721F485E090E0E1D99B
S1130F101DCD80819181039709F018CD86E090E082
S1130F20D8D914CDEB81FC81E85EFE4F408151811C
S1130F30D7018D919C914817590709F497C0F7017F
S1130F40C4016B817C81258136814217530709F4E2
S1130F5090C00196359688309105A9F7F7CC808129
S1130F6091814817590709F497C02F5F3F4FE25EFC
S1130F70FE4F2031310599F7CB01FB01EE0FFF1F26
S1130F80EE0FFF1F8E0F9F1FFC01EC5EFD4F82E0F2
S1130F908283DCCC2A9DF0012B9DF00D3A9DF00D4F
S1130FA01124E257FC4F80819181892B09F0CECC2A
S1130FB0EB81FC81EC5FFE4F81E0808344E052E0F2
S1130FC06AE876E182E192E0DBD223DBBFCC80E009
S1130FD090E002C07C836B838A9DF0018B9DF00DB1
S1130FE09A9DF00D1124E257FC4F9182808263CDCB
S1130FF080E090E002C07C836B838A9DF0018B9D2E
S1131000F00D9A9DF00D1124E257FC4F208131819F
S11310102130310509F09ACC7FCD80E090E002C008
S11310207C836B83FC01EE0FFF1FEE0FFF1FEE0F9F
S1131030FF1FE81BF90BE45CFD4F2281213009F00E
S113104055CE3BCE80E090E002C07C836B83FC01F4
S1131050EE0FFF1FEE0FFF1FE80FF91FEC5EFD4FB1
S113106023813481232B09F040CF02CF80E090E02C
S113107002C07C836B83EAE8F3E02081318142176C
S1131080530739F0E8EAF4E09401AB81BC81BC0178
S113109066CF20E030E003C0BC83AB83CB012A9D44
S11310A0A0012B9D500D3A9D500D11244C585D4FBD
S11310B0FA01EC5FFE4F61E0608372963182208218
S11310C0FC01EE0FFF1FEE0FFF1F8E0F9F1FFC0191
S11310D0EC5EFD4F14821382EB81FC81E95FFE4FCD
S11310E080819181FA01E95FFE4F40815181481767
S11310F0590708F44FCF2ACC0F900F900F900F9000
S1131100DF91CF911F910F91FF90EF90DF90CF90DF
S1131110BF90AF909F908F907F906F905F904F9013
S11311203F902F9008958091100290911102892B85
S113113099F0F894E0911202F0911302E35FFE4FEC
S113114087E0808353D8E0911202F0911302E25FAA
S1131150FE4F8081918108950895809110029091AD
S11311601102892B99F0F894E0911202F091130284
S1131170E35FFE4F8AE0808339D8E0911202F09158
S11311801302E25FFE4F80819181089508952091BA
S1131190100230911102232BE9F0F89420911202ED
S11311A030911302F901E35FFE4FA1E0A08332976F
S11311B0918380833697718360833496518340830F
S11311C015D8E0911202F0911302E25FFE4F808184
S11311D09181089565C9089580911002909111023A
S11311E0892B59F0F894E0911202F0911302E35F15
S11311F0FE4F82E080830C94F600089558D863D89B
S11312005CD849D84ED8F89410928000E1E8F0E018
S11312101082109285001092840080E792E09093EF
S113122089008093880080818860808380818460C5
S11312308083EFE6F0E080818260808310929000EA
S1131240E1E9F0E01082109295001092940083E29C
S113125094EF9093990080939800808188608083B4
S113126080818460808382E0809371007894089503
S11312701F920F920FB60F9211240BB60F92DF92AA
S1131280EF92FF920F931F932F933F934F935F938C
S11312906F937F938F939F93AF93BF93EF93FF933A
S11312A0CF93DF9300D01F92CDB7DEB780910202B7
S11312B09091030201979A83898389819A81992362
S11312C00CF47CC0E981FA81EE0FFF1FE659F94E58
S11312D00190F081E02DE05FFE4F2081318180910B
S11312E00602909107028217930708F467C0E98108
S11312F0FA81EE0FFF1FE659F94E0190F081E02DBF
S1131300EE5EFE4F20813181809194009091950092
S113131061E772E0F6D36217730758F54FC0E981AD
S1131320FA81EE0FFF1FE659F94E0190F081E02D8E
S1131330E05FFE4F20813181809106029091070287
S113134082179307D8F1E981FA81EE0FFF1FE6595E
S1131350F94E0190F081E02DEE5EFE4F2081318147
S1131360F70180819181B801CCD36217730750F4DF
S113137025C0DD24D3940F2EF4E9EF2EF12CF02DAB
S113138001E712E062E072E08AE696E11CD29C83F7
S11313908B83FC01EC5FFE4FD08244E052E06AE8AC
S11313A076E1CE010396ECD089819A8101979A83E4
S11313B0898389819A8199230CF0B1CF0DDF0F9035
S11313C00F900F900F90DF91CF91FF91EF91BF910C
S11313D0AF919F918F917F916F915F914F913F91C9
S11313E02F911F910F91FF90EF90DF900F900BBE04
S11313F00F900FBE0F901F9018951F920F920FB66B
S11314000F9211248F939F9380910602909107026B
S1131410019690930702809306029F918F910F90FB
S11314200FBE0F901F901895E9DE96D841E050E06A
S113143060E070E082E991E0AADE3BCA0895CF93B0
S1131440DF93EA01288139812F30310529F1E881C0
S1131450F9819F012150310972F0EE0FFF1FE60F51
S1131460F71FDB013291229133832283EA17FB07B2
S1131470C9F72FEF3FEFFC01808191812F5F3F4F30
S1131480220F331FFB01E20FF31F918380838881B6
S11314909981019699838883DF91CF910895CF92A2
S11314A0DF92EF92FF920F931F93CF93DF93EA01A2
S11314B0288139812F30310509F459C0A881B981B7
S11314C01197FC01C080D180FD01EE0FFF1FEB01DD
S11314D0CE0FDF1F28813981BB23CCF1FE017601B9
S11314E0C0EFEC1ACEEFFC0ADEEECD1ADEEFDD0A19
S11314F00BC0208131813383228311973291229151
S1131500AF3FCFEFBC0719F1E70108811981E90169
S1131510C05FDE4F0990D881C02DC017D10748F3B2
S1131520E70108811981E901C05FDE4F0990D88184
S1131530C02D0C171D0758F0E601088119812E5E95
S11315403E4FE901288139810217130790F6FC0107
S1131550808191811196AA0FBB1FA60FB71F8D938F
S11315609C93EA0188819981019699838883DF910C
S1131570CF911F910F91FF90EF90DF90CF9008953E
S1131580CF92DF92EF92FF920F931F93CF93DF934B
S11315906A01EA01288139812F30310509F44AC0F2
S11315A02881398121503109FC0100811181F9011F
S11315B0EE0FFF1FDB01AE0FBF1F4D915C91332374
S11315C03CF1D801A95FBE4FED90FC90DA01A95F10
S11315D0BE4F4D915C91E416F506D0F0E60FF71F6F
S11315E0095F1E4FA081B181B383A28321503109C9
S11315F0B291A2912F3F4FEF340751F0E801E880F8
S1131600F980A95FBE4F4D915C91E416F50650F741
S1131610FC01808191812F5F3F4F220F331FFB011B
S1131620E20FF31F91838083E601888199810196FB
S113163099838883DF91CF911F910F91FF90EF9051
S1131640DF90CF9008950F931F93CF93DF93EB0117
S113165028813981232B09F454C0288139812150F0
S113166031090AF451C0E901CC0FDD1FFC01EC0F74
S1131670FD1FA081B181FD01EC5EFE4F0190F08160
S1131680E02DE417F50781F40AC0BA91AA91FD018F
S1131690EC5EFE4F008111810417150739F4109791
S11316A059F480E090E032C0C80FD91F21503109AD
S11316B060F780E090E02AC0EB01488159814150F5
S11316C0510924173507A4F4A901440F551FFC013F
S11316D0E40FF51F82819381819391932F5F3F4F94
S11316E0EB0148815981415051092417350794F37E
S11316F0FB01808191810197918380838A2F9B2FA5
S113170005C080E090E002C080E090E0DF91CF91DE
S11317101F910F910895CF93DF93EB0128813981B5
S1131720232B09F448C0E881F9819F012150310934
S11317300AF444C0EE0FFF1FE80FF91F52914291C3
S1131740DA01A65EBE4F6D917C911197672B59F417
S113175056976C91613039F4F9014115510549F4FA
S113176080E090E02DC02150310940F780E090E006
S113177027C06881798161507109261737079CF465
S1131780EE0FFF1FDC01AE0FBF1F12968D919C91CF
S113179013978D939D932F5F3F4FE881F981319784
S11317A02E173F0794F38881998101979983888341
S11317B0842F952F05C080E090E002C080E090E087
S11317C0DF91CF910895DB012D913C911197232B4B
S11317D0A9F02D913C911197F901E150F048EE0FD9
S11317E0FF1FE80FF91F808191812D913C91119782
S11317F02150310911963C932E93089508953D9AF2
S113180045982FEF39E688E1215030408040E1F7D8
S113181000C00000459A9FEF27EA31E6915020402E
S11318203040E1F700C0000083E045989FEF20E7D7
S113183032E0915020403040E1F700C00000459A6A
S11318409FEF20E732E0915020403040E1F700C0A4
S11318500000815051F7A6D080E8D1D08FEF99EFE6
S113186020E0815090402040E1F700C0000081E872
S1131870C6D089E0C4D03FEF81EE94E0315080407F
S11318809040E1F700C0000081E08CD082E8B7D03E
S11318902FEF39EF80E0215030408040E1F700C065
S11318A0000008950F931F93CF93DF93182F092FF0
S11318B0C62FD72F89E8A3D0802FA1D0812F9FD006
S11318C08D2F9DD08C2F9BD0DF91CF911F910F91A5
S11318D008951F920F920FB60F9211240BB60F9218
S11318E02F933F934F935F938F939F93EF93FF9324
S11318F02091C0003091C600287180915B1590E062
S113190001968F77992740915A1550E04817590747
S113191039F080935B15FC01E25AFA4E308301C022
S113192022E020935915FF91EF919F918F915F9140
S11319304F913F912F910F900BBE0F900FBE0F90C0
S11319401F9018951F920F920FB60F9211240BB689
S11319500F928F939F93EF93FF9390915D158091D6
S11319605C15981779F080915C1590E001968F775B
S1131970992780935C15FC01E252FA4E8081809392
S1131980C60005C0E1ECF0E080818F7D8083FF918B
S1131990EF919F918F910F900BBE0F900FBE0F9000
S11319A01F90189510925D1510925C1510925B159E
S11319B010925A15813041F018F0823049F00CC071
S11319C087E68093C4000BC083E38093C40007C000
S11319D082E28093C40003C087E68093C4008091B0
S11319E0C5008091C40080E08093C5001092C400BB
S11319F088E98093C10086E08093C20008954091F5
S1131A005D1550E04F5F5F4F4F77552720915C1570
S1131A1030E024173507D1F3FA01E252FA4E8083FD
S1131A2040935D15E1ECF0E080818062808308954D
S1131A301F920F920FB60F9211240BB60F922F9391
S1131A403F934F935F938F939F93EF93FF932091D3
S1131A50C8003091CE0028718091561490E0019610
S1131A608F7799274091551450E04817590739F05A
S1131A7080935614FC01E75AFB4E308301C022E0E8
S1131A8020935414FF91EF919F918F915F914F9107
S1131A903F912F910F900BBE0F900FBE0F901F9090
S1131AA018951F920F920FB60F9211240BB60F9236
S1131AB08F939F93EF93FF939091581480915714B1
S1131AC0981779F08091571490E001968F779927B1
S1131AD080935714FC01E752FB4E80818093CE0023
S1131AE005C0E9ECF0E080818F7D8083FF91EF9168
S1131AF09F918F910F900BBE0F900FBE0F901F9070
S1131B001895AA1BBB1B51E107C0AA1FBB1FA61730
S1131B10B70710F0A61BB70B881F991F5A95A9F792
S1131B2080959095BC01CD010895EE0FFF1F881F8D
S1111B308BBF0790F691E02D1994F894FFCF27
S9030000FC
